:020000040800F2
:1000000000000120990400087D0400087F04000816
:100010008104000883040008850400080000000033
:10002000000000000000000000000000870400083D
:1000300089040008000000008B0400088D040008FB
:10004000E9040008E9040008E9040008E9040008DC
:10005000E9040008E9040008E9040008E9040008CC
:10006000E9040008E9040008E9040008E9040008BC
:10007000E9040008E9040008E9040008E9040008AC
:10008000E9040008E9040008E9040008E90400089C
:10009000E9040008E9040008E9040008E90400088C
:1000A000E9040008E9040008E9040008E90400087C
:1000B000E90400080000000000000000E904000856
:1000C000E90400080000000000000000E904000846
:1000D00000000000E9040008E90400080000000036
:1000E000E9040008E9040008000000000000000026
:1000F0000000000000000000000000000000000000
:10010000000000000000000000000000E9040008FA
:100110000000000000000000E9040008E9040008F5
:10012000E9040008E9040008E9040008E9040008FB
:10013000E9040008000000000000000000000000CA
:10014000E9040008E9040008E9040008E9040008DB
:10015000E9040008E9040008E9040008E9040008CB
:10016000E9040008E9040008E904000800000000B0
:10017000E9040008E9040008000000000000000095
:0C018000E9040008E9040008E904000894
:10018C0053B94AB9002908BF00281CBF4FF0FF31F2
:10019C004FF0FF3000F00CB8ADF1080C6DE904CE57
:1001AC0001F0EAFCDDF804E0DDE9022304B070475D
:1001BC00704700BF0348044B834202D0034B03B18A
:1001CC0018477047100000201000002000000000AD
:1001DC000548064B1B1AD90F01EBA301491002D09D
:1001EC00034B03B11847704710000020100000208B
:1001FC000000000010B5064C237843B9FFF7DAFF76
:10020C00044B13B10448AFF300800123237010BDDD
:10021C0010000020000000000C20000808B5054B61
:10022C001BB105490548AFF30080BDE80840FFF756
:10023C00CFBF00BF00000000140000200C200008FD
:10024C0030B589B000240394049405940694079463
:10025C00164BDA6C42F00402DA64DA6C02F0040237
:10026C000092009ADA6C42F00102DA64DA6C02F065
:10027C0001020192019ADA6C42F00202DA64DB6C40
:10028C0003F002030293029B094D224608212846E3
:10029C0000F0B6FA08230393012304930594069403
:1002AC0003A9284600F0D0F909B030BD0010024077
:1002BC000004004872B6FEE708B50B480B4B036010
:1002CC004FF4E133436000238360C36003610C226D
:1002DC0042618361C3610362436201F01CFC00B99B
:1002EC0008BDFFF7E7FF00BF2C00002000440040D2
:1002FC0000B597B04422002105A801F09BFD002316
:10030C00009301930293039304934FF4007000F055
:10031C008DFA002831D100F079FA1B4AD2F89030CE
:10032C0023F01803C2F8903014230593012307938C
:10033C000B9300220C9260220D9202220F921093CA
:10034C00119310231293072313931492159205A85B
:10035C0000F056FB98B90F2300930323019300235D
:10036C000293039304930121684600F07FFE40B989
:10037C0001F094F917B05DF804FBFFF79BFFFFF752
:10038C0099FFFFF797FF00BF0010024008B500F07F
:10039C00CFF8FFF7ADFFFFF753FFFFF78DFFFEE739
:1003AC0082B00A4B1A6E42F001021A661A6E02F003
:1003BC0001020092009A9A6D42F080529A659B6DF0
:1003CC0003F080530193019B02B070470010024070
:1003DC0070B59CB0044600211791189119911A918F
:1003EC001B91542202A801F025FD22681E4B9A4253
:1003FC0001D01CB070BD0223029302A800F0DAFFFA
:10040C0000282ED1194B9A6D42F400329A659A6DE0
:10041C0002F400320092009ADA6C42F00102DA64C3
:10042C00DB6C03F001030193019B04231793022659
:10043C0018960025199503241A9407231B9317A9C2
:10044C004FF0904000F000F94FF4004317931896CA
:10045C0019951A941B9417A94FF0904000F0F4F8DA
:10046C00C7E7FFF727FFCDE700440040001002402C
:10047C00FEE7FEE7FEE7FEE7FEE7704770477047D2
:10048C0008B500F065F808BD70470000DFF834D0FF
:10049C00FFF7FAFF0C480D490D4A002302E0D4582F
:1004AC00C4500433C4188C42F9D30A4A0A4C0023B2
:1004BC0001E013600432A242FBD301F00DFDFFF703
:1004CC0065FFFEE700000120000000201000002066
:1004DC0080200008100000204C020020FEE70000E5
:1004EC00104B1B780BB90120704710B504464FF424
:1004FC007A70B0FBF3F30C4A1068B0FBF3F000F029
:10050C008FF868B90F2C01D901200AE0002221468E
:10051C004FF0FF3000F074F8044B1C60002000E03A
:10052C00012010BD04000020000000200800002065
:10053C0010B5032000F052F80020FFF7D1FF10B1E6
:10054C000124204610BD0446FFF72AFFF9E70000FE
:10055C00034B1B78034A11680B441360704700BFB0
:10056C0004000020B0000020014B1868704700BF49
:10057C00B0000020002808DB0901C9B200F160407E
:10058C0000F5614080F80013704700F00F0009017E
:10059C00C9B2014B1954704714ED00E000B500F0DE
:1005AC000700C0F1070CBCF1040F28BF4FF0040C7E
:1005BC00031D062B0FD9C31E4FF0FF3E0EFA0CF095
:1005CC0021EA000199400EFA03FE22EA0E0241EAEA
:1005DC0002005DF804FB0023EEE70000074AD36835
:1005EC0023F4E0631B041B0C000200F4E0600343E3
:1005FC0043F0BF6343F40033D360704700ED00E079
:10060C0010B50446054BD868C0F30220FFF7C6FFAF
:10061C0001462046FFF7AEFF10BD00BF00ED00E025
:10062C000138B0F1807F0BD24FF0E0235861054ABE
:10063C00F02182F823100020986107221A6170477C
:10064C000120704700ED00E070B582B0002365E03A
:10065C0085685E000324B44025EA0405CC68B440E8
:10066C002C438460456825EA0C054C68C4F30014DF
:10067C009C402C43446062E0DD08083550F825406E
:10068C0003F0070C4FEA8C0C4FF00F0E0EFA0CFE19
:10069C0024EA0E0E0C6904FA0CF444EA0E0440F839
:1006AC00254063E0022400E0002404FA0EF42C43FD
:1006BC000CF1020C4E4D45F82C404E4CA568D44321
:1006CC0025EA0206D1F804C01CF4801F01D042EACE
:1006DC000506484DAE60ED6804EA0506D1F804C085
:1006EC001CF4001F01D042EA0506424DEE606D6815
:1006FC0004EA0506D1F804C01CF4003F01D042EA1C
:10070C0005063C4D6E602D682C404E6816F4803FFB
:10071C0001D042EA0504374A146001330A6832FA00
:10072C0003F462D04FF0010C0CFA03FC1CEA020239
:10073C00F3D04C6804F00304013C012C88D94C68BC
:10074C0004F00304032C0CD0C4685D004FF0030CC0
:10075C000CFA05FC24EA0C0C8C68AC4044EA0C0442
:10076C00C4604C6804F00304022C85D004684FEA82
:10077C00430E4FF0030C0CFA0EFC24EA0C0C4C68E4
:10078C0004F0030404FA0EF444EA0C0404604C680C
:10079C0014F4403FC1D0184C256E45F00105256678
:1007AC00246E04F001040194019C4FEA930C0CF1AB
:1007BC0002050F4C54F8255003F0030E4FEA8E0E31
:1007CC000F2404FA0EF425EA0405B0F1904F3FF41F
:1007DC006BAF0A4CA04206D004F58064A0423FF4F3
:1007EC0061AF072461E701245FE702B070BD00BF71
:1007FC0000000140000401400010024000040048C9
:10080C000AB181617047816270470000024A136827
:10081C0043F480731360704700700040024B1868FB
:10082C0000F4C060704700BF00700040B0F5007F5E
:10083C000FD01F4B1B6803F4C063B3F5806F34D02B
:10084C001B4A136823F4C06343F4806313600020D5
:10085C007047174B1B6803F4C063B3F5007F20D0BF
:10086C00134A136823F4C06343F400731360114BF1
:10087C001B68322202FB03F30F4AA2FB03239B0CDF
:10088C00013300E0013B0A4A526912F4806F01D037
:10089C00002BF7D1064B5B6913F4806F03D100205A
:1008AC00704700207047032070470020704700BF3E
:1008BC00007000400000002083DE1B4330B583B085
:1008CC000446204B9B6D13F0805F0BD0FFF7A6FF07
:1008DC00B0F5007F17D0802C1FD82DD0702C2DD0C8
:1008EC0000211BE0174DAB6D43F08053AB65AB6D36
:1008FC0003F080530193019BFFF790FFAB6D23F046
:10090C008053AB65E4E7802C03D9A02C03D90221DA
:10091C0004E0002102E0012100E003210A4A1368EF
:10092C0023F007030B431360136803F007038B4298
:10093C0006D1002003B030BD0221EFE70121EDE725
:10094C000120F7E70010024000200240284A93687B
:10095C00D26802F0030213F00C030AD00C2B06D061
:10096C00042B1FD0082B20D00020024610E0012AB7
:10097C00F6D11F4A126812F0080F0CD11C4AD2F89B
:10098C009420C2F303221B4951F8222043B10020CA
:10099C000C2B0DD07047164A1268C2F30312F2E703
:1009AC001046F5E714480022F2E714480022EFE75E
:1009BC000F4BDB6803F00303022B16D0032B00D183
:1009CC000E4A0B49CB68C3F302130133C868C0F35A
:1009DC00062002FB00F0B0FBF3F0CB68C3F34163DD
:1009EC0001335B00B0FBF3F0D4E7034AE9E700BF47
:1009FC0000100240242000080024F40000127A00A9
:100A0C00002800F01C83F0B583B00446964B9D681B
:100A1C0005F00C05DE6806F00306036813F0100FF2
:100A2C005AD0E5B10C2D18D0A369002B00F0BB8077
:100A3C008D4A136843F001031360FFF795FD0746D9
:100A4C00894B1B6813F0020F40F09A80FFF78CFD66
:100A5C00C01B0228F4D90320FCE2012EE4D1824B06
:100A6C001B6813F0020F03D0A369002B00F0E9827E
:100A7C00206A7D4B1B6813F0080F5BD07A4B1B6808
:100A8C0003F0F00398425CD8774B1A6842F00802E6
:100A9C001A601A6822F0F002216A0A431A605A6836
:100AAC0022F47F42E16942EA01225A60002D60D0B3
:100ABC00FFF74CFF6C4B9B68C3F303136B4AD35C7F
:100ACC0003F01F03D8406A4B18606A4B1868FFF795
:100ADC0007FD002840F0BE82236813F0010F00F0E0
:100AEC008180082D75D00C2D71D06368B3F5803FD3
:100AFC0000F09780B3F5A02F00F099805A4B1A683C
:100B0C0022F480321A601A6822F480221A60636818
:100B1C00002B00F09980FFF727FD0746524B1B680E
:100B2C0013F4003F5ED1FFF71FFDC01B6428F5D9FD
:100B3C0003208FE24C4BD3F894301B0903F0F003E5
:100B4C00A0E7FFF7BBFE002840F07D82464B1A68F9
:100B5C0042F008021A601A6822F0F002216A0A4375
:100B6C001A605A6822F47F42E16942EA01225A6013
:100B7C009EE7206AFFF7A2FE002899D0012069E2C7
:100B8C00394B1A6842F008021A601A6822F0F00217
:100B9C00216A0A431A605A6822F47F42E16942EAE8
:100BAC0001225A6098E7304A136823F0010313605E
:100BBC00FFF7DAFC07462C4B1B6813F0020F8BD0A7
:100BCC00FFF7D2FCC01B0228F5D9032042E2032E0A
:100BDC008BD1254B1B6813F4003F03D06368002BAB
:100BEC0000F03382236813F0020F58D0042D45D047
:100BFC000C2D41D0E368002B77D01B4A136843F4CB
:100C0C0080731360FFF7B0FC0646174B1B6813F498
:100C1C00806F61D1FFF7A8FC801B0228F5D9032057
:100C2C0018E2114A136843F4803313606FE703F141
:100C3C008043A3F53C331A6842F480221A601A6888
:100C4C0042F480321A6062E7FFF78EFC0746064BCF
:100C5C001B6813F4003FC5D0FFF786FCC01B64284B
:100C6C00F5D90320F6E100BF001002405C2000081B
:100C7C000000002008000020022EBBD1A44B1B68F2
:100C8C0013F4806F03D0E368002B00F0E081A04ADE
:100C9C00536823F0F853216943EA016353602368D6
:100CAC0013F0080F4CD063699BB3994AD2F8943077
:100CBC0043F00103C2F89430FFF756FC0646944B00
:100CCC00D3F8943013F0020F3AD1FFF74DFC801B90
:100CDC000228F4D90320BDE18D4A536823F0F85360
:100CEC00216943EA01635360D9E7894A136823F405
:100CFC0080731360FFF738FC0646854B1B6813F4B2
:100D0C00806FCCD0FFF730FC801B0228F5D9032074
:100D1C00A0E17F4AD2F8943023F00103C2F894305A
:100D2C00FFF722FC06467A4BD3F8943013F0020FEF
:100D3C0006D0FFF719FC801B0228F4D9032089E1A7
:100D4C00236813F0040F7AD0714B9B6D13F0805F06
:100D5C0036D16F4B9A6D42F080529A659B6D03F0C1
:100D6C0080530193019B01266A4B1B6813F4807F0F
:100D7C0028D0A368012B39D0052B3FD0644BD3F876
:100D8C00902022F00102C3F89020D3F8902022F09A
:100D9C000402C3F89020A368002B3DD0FFF7E4FBBE
:100DAC0007465B4BD3F8903013F0020F46D1FFF798
:100DBC00DBFBC01B41F288339842F2D9032049E196
:100DCC000026D1E7534A136843F480731360FFF78E
:100DDC00CBFB07464F4B1B6813F4807FC9D1FFF741
:100DEC00C3FBC01B0228F5D9032033E1484AD2F8D3
:100DFC00903043F00103C2F89030CCE7444BD3F869
:100E0C00902042F00402C3F89020D3F8902042F0D6
:100E1C000102C3F89020BEE7FFF7A6FB07463C4B48
:100E2C00D3F8903013F0020F08D0FFF79DFBC01BD6
:100E3C0041F288339842F2D903200BE1E6B92368DA
:100E4C0013F0200F35D0636AE3B1314AD2F89830F1
:100E5C0043F00103C2F89830FFF786FB06462C4B93
:100E6C00D3F8983013F0020F23D1FFF77DFB801BD2
:100E7C000228F4D90320EDE0254A936D23F080532A
:100E8C009365DCE7224AD2F8983023F00103C2F8CC
:100E9C009830FFF769FB06461D4BD3F8983013F0DA
:100EAC00020F06D0FFF760FB801B0228F4D9032049
:100EBC00D0E0A36A002B00F0CC80022B17D00C2DB5
:100ECC0000F0CC80124A136823F080731360FFF794
:100EDC004BFB04460E4B1B6813F0007F00F0A88000
:100EEC00FFF742FB001B0228F4D90320B2E0084BA9
:100EFC00DB6803F00301E26A91420DD00C2D00F087
:100F0C00AB80034B1B6813F0806F2FD00120A1E046
:100F1C00001002400070004003F07002216B013998
:100F2C00B2EB011FEAD103F4FE42616BB2EB012F6D
:100F3C00E4D103F07842A16BB2EBC16FDED103F4C4
:100F4C00C001E26B5208013AB1EB425FD6D103F01B
:100F5C00C063226C5208013AB3EB426FCED1404BC6
:100F6C001B6813F0007F49D0002073E03C4A1368E3
:100F7C0023F080731360FFF7F7FA0546384B1B68B4
:100F8C0013F0007F06D0FFF7EFFA401B0228F5D9CB
:100F9C0003205FE0324AD36832491940E36A206B80
:100FAC00013843EA0013606B43EA0023E06B40080E
:100FBC00013843EA4053206C4008013843EA40634F
:100FCC00A06B43EAC0631943D160136843F080738C
:100FDC001360D36843F08073D360FFF7C5FA0446FF
:100FEC001F4B1B6813F0007F06D1FFF7BDFA001BE7
:100FFC000228F5D903202DE000202BE0184B1A68AD
:10100C0042F080721A60DA6842F08072DA60FFF7A0
:10101C00ABFA0446124B1B6813F0007F06D1FFF7A6
:10102C00A3FA031B022BF5D9032013E0002011E0D7
:10103C000B4AD1680C4B0B40D36000200AE0012016
:10104C007047012006E0012004E0012002E00120AD
:10105C0000E0002003B0F0BD0120FBE70120F9E720
:10106C00001002408C809D01FCFFEEFE002800F079
:10107C00AF8070B50D460446594B1B6803F007034F
:10108C008B420BD2564A136823F007030B431360B1
:10109C00136803F007038B4240F09C80236813F025
:1010AC00020F0CD0A2684F4B9B6803F0F0039A42DE
:1010BC0005D94C498B6823F0F0031A438A602368E6
:1010CC0013F0010F39D06368032B09D0022B26D003
:1010DC0063BB444A126812F0020F06D1012076E07D
:1010EC00404A126812F0007F76D03E498A6822F09E
:1010FC00030213438B60FFF737FA0646394B9B68A4
:10110C0003F00C036268B3EB820F16D0FFF72CFAD6
:10111C00801B41F288339842F0D9032057E0314AC2
:10112C00126812F4003FE0D1012050E02D4A126801
:10113C0012F4806FD9D1012049E0236813F0020F1B
:10114C000CD0A268274B9B6803F0F0039A4205D29F
:10115C0024498B6823F0F0031A438A60204B1B68E8
:10116C0003F00703AB420AD91D4A136823F00703A7
:10117C002B431360136803F00703AB422ED1236893
:10118C0013F0040F06D0174A936823F4E063E16868
:10119C000B439360236813F0080F07D0114A936830
:1011AC0023F46053216943EAC1039360FFF7CEFB3C
:1011BC000C4B9B68C3F303130B4AD35C03F01F0364
:1011CC00D8400A4B18600A4B1868FFF789F970BDB4
:1011DC00012070470120FAE70120F8E70120F6E72B
:1011EC0000200240001002405C200008000000209B
:1011FC0008000020014B1868704700BF0000002059
:10120C0008B5FFF7F7FF054B9B68C3F30223044AAD
:10121C00D35C03F01F03D84008BD00BF0010024090
:10122C005420000808B5FFF7E5FF054B9B68C3F396
:10123C00C223044AD35C03F01F03D84008BD00BF8F
:10124C000010024054200008F8B504460D46584BD7
:10125C00DB6813F0030F17D0554BDB6803F0030367
:10126C000268934201D0012616E0002A00F09E800D
:10127C004F4BDB68C3F3021301334268934201D036
:10128C00012609E000261BE00368022B57D0032B34
:10129C005CD0012B02D001263046F8BD444A1268BE
:1012AC0012F0020F5ED04248C26822F073026168ED
:1012BC00013943EA01131343C3600026002EEBD11E
:1012CC003B4A136823F080631360FFF74DF9074620
:1012DC00374B1B6813F0006F05D0FFF745F9C31BA4
:1012EC00022BF5D90326002ED6D1002D3CD1304946
:1012FC000B6923F0784323F4FE43A068E268D2061E
:10130C0042EA002213430B61294A136843F08063BD
:10131C001360FFF729F90546254B1B6813F0006F86
:10132C0005D1FFF721F9401B0228F5D90326002E21
:10133C00B2D11F4A1369A1690B431361ACE71C4A74
:10134C00126812F4806FAED10126A5E7184A126814
:10135C0012F4003FA7D1164A126812F4802FA2D1C2
:10136C00012699E70126A9E7012D0FD01048026943
:10137C0022F0C06222F4FE42A16863695B08013B63
:10138C005B0643EA01231A430261BDE70848026980
:10139C0022F4C00222F4FE42A16823695B08013BDF
:1013AC005B0543EA01231A430261ADE7012673E7AB
:1013BC00001002402DE9F04182B00446036813F49A
:1013CC00006F25D0C36BB3F5000F06D0B3F5400FFB
:1013DC0012D04BB1012637461CE0AE4AD36843F419
:1013EC008033D360002708E000210430FFF72CFF86
:1013FC00074610B106460DE00027A64AD2F8883001
:10140C0023F44003E16B0B43C2F88830002601E063
:10141C0000263746236813F4003F6BD09D4B9B6D21
:10142C0013F0805F4CD19B4B9A6D42F080529A65C1
:10143C009B6D03F080530193019B4FF00108964A7A
:10144C00136843F480731360FFF78EF80546924BD4
:10145C001B6813F4807F05D1FFF786F8401B022828
:10146C00F5D90327002F40D18A4BD3F8903013F4D1
:10147C00407315D0226D9A4212D0864AD2F8903021
:10148C0023F44073D2F8901041F48031C2F89010DC
:10149C00D2F8901021F48031C2F89010C2F890303C
:1014AC0013F0010F0FD1002F40F0C980794AD2F808
:1014BC00903023F44073216D0B43C2F8903015E04B
:1014CC004FF00008BBE7FFF74FF80546714BD3F818
:1014DC00903013F0020FE6D1FFF746F8401B41F2B3
:1014EC0088339842F2D90327DDE73E46B8F1000F66
:1014FC0040F0A780236813F0010F08D0654AD2F89A
:10150C00883023F00303216A0B43C2F88830236828
:10151C0013F0020F08D05F4AD2F8883023F00C0386
:10152C00616A0B43C2F88830236813F0200F08D08F
:10153C00584AD2F8883023F44063A16A0B43C2F8AE
:10154C008830236813F4007F08D0524AD2F88830D0
:10155C0023F44023616B0B43C2F88830236813F4E7
:10156C00806F08D04B4AD2F8883023F44013A16B1B
:10157C000B43C2F88830236813F0400F08D0454A5B
:10158C00D2F8883023F44053E16A0B43C2F8883018
:10159C00236813F4807F08D03E4AD2F8883023F4B5
:1015AC004033216B0B43C2F88830236813F4005F7F
:1015BC000FD0384AD2F8883023F04063216C0B43AB
:1015CC00C2F88830236CB3F1006F40D0B3F1806F58
:1015DC0042D0236813F4802F0FD02E4AD2F88830D3
:1015EC0023F04063616C0B43C2F88830636CB3F139
:1015FC00006F39D0B3F1806F3BD0236813F4804F68
:10160C000CD0244AD2F8883023F04053A16C0B4301
:10161C00C2F88830A36CB3F1805F32D0236813F426
:10162C00004F08D01B4AD2F8883023F08043E16C7D
:10163C000B43C2F88830304602B0BDE8F0813E461C
:10164C0054E7144A936D23F08053936552E7D368A3
:10165C0043F48013D360BCE70121201DFFF7F4FD98
:10166C000028B6D00646B4E7D36843F48013D360A1
:10167C00C3E70121201DFFF7E7FD0028BDD006467A
:10168C00BBE70221201DFFF7DFFD0028C6D0064670
:10169C00C4E700BF0010024000700040024A13680B
:1016AC0043F00403136070470010024010B5044669
:1016BC00016883680269134342691343C269134387
:1016CC0008688C4A02401A430A602268536823F463
:1016DC004053E1680B435360A1692268864B9A42E0
:1016EC0001D0236A1943936823F430630B4393604E
:1016FC002368824A93421CD0814A93422DD07E4A61
:10170C00934243D010227C498B4260D0E069B0F503
:10171C00004F00F08C80082A00F2E580DFE812F020
:10172C00B400CA00B200E300CD00E300E300E30024
:10173C00D00002F55842D2F8882002F00302032AA6
:10174C0009D8DFE802F0020438060122DBE70422A4
:10175C00D9E70822D7E71022D5E702F5E632D2F80E
:10176C00882002F00C020C2A0ED8DFE802F0070DDC
:10177C000D0D090D0D0D260D0D0D0B000022C2E7F0
:10178C000422C0E70822BEE71022BCE702F5C832EB
:10179C00D2F8882002F44062B2F5006F0FD005D861
:1017AC007AB1B2F5806F0ED10422ACE7B2F5406F7E
:1017BC000BD10822A7E70222A5E70222A3E7022207
:1017CC00A1E700229FE710229DE710229BE7082A41
:1017DC0079D8DFE802F008782A782778787805003D
:1017EC004FF4004003E0FFF70BFD00286DD062685A
:1017FC0002EB420383426AD8B0EB023F69D8010E78
:10180C0000025308C0184FF0000341F10001FEF72D
:10181C00B7FCA0F540723B4B9A425CD82368D86069
:10182C00002043E0FFF792F8DFE73748DFE7082AAC
:10183C0053D8DFE802F007210552245252520B0014
:10184C00314803E0FFF7DCFC002848D062685308FD
:10185C0003EB4003B3FBF2F3A3F110014FF6EF726D
:10186C0091423ED89AB222F00F02C3F342031343C3
:10187C002268D360002019E0FFF7D4FCE4E7FFF7FF
:10188C0065F8E1E7204802E0FFF7BAFC68B363684B
:10189C0000EB5300B0FBF3F0A0F110024FF6EF7326
:1018AC009A4224D8236880B2D86000200023636653
:1018BC00A36610BDFFF7B6FCE8E7FFF747F8E5E7CE
:1018CC004FF40040E3E70120F0E70020EEE70120B1
:1018DC00ECE70120EAE70120E8E70120E6E7002039
:1018EC00E4E70120E2E70120E0E70020DEE7012049
:1018FC00DCE700BFF369FFEF0080004000380140D7
:10190C0000440040FFFC0F000024F400436A13F075
:10191C00010F06D00268536823F40033816A0B432D
:10192C005360436A13F0020F06D00268536823F425
:10193C008033C16A0B435360436A13F0040F06D023
:10194C000268536823F48023016B0B435360436A92
:10195C0013F0080F06D00268536823F40043416B60
:10196C000B435360436A13F0100F06D00268936860
:10197C0023F48053816B0B439360436A13F0200F65
:10198C0006D00268936823F40053C16B0B43936039
:10199C00436A13F0400F0AD00268536823F4801393
:1019AC00016C0B435360036CB3F5801F0BD0436A7F
:1019BC0013F0800F06D00268536823F40023816C67
:1019CC000B43536070470268536823F4C003416CA7
:1019DC000B435360EBE72DE9F84305460F461646DB
:1019EC009946DDF820802B68DC6937EA04040CBFCB
:1019FC0001240024B44253D1B8F1FF3FF3D0FEF7D9
:101A0C00B3FDA0EB090040452DD8B8F1000F2AD04A
:101A1C002B681A6812F0040FE5D0DA6912F4006F23
:101A2C00E1D04FF400621A622A6852E8003F23F4B6
:101A3C00D07342E800310029F6D12A6802F108037C
:101A4C0053E8003F23F00103083242E8003100293B
:101A5C00F3D12023AB67EB67C5F88030002385F802
:101A6C00743003201DE02A6852E8003F23F4D07341
:101A7C0042E800310029F6D12A6802F1080353E844
:101A8C00003F23F00103083242E800310029F3D172
:101A9C002023AB67EB67002385F87430032000E04C
:101AAC000020BDE8F88330B583B004460023C0F8AD
:101ABC008030FEF759FD05462268126812F0080FB7
:101ACC000DD123681B6813F0040F16D12023A367D4
:101ADC00E3670020206684F8740003B030BD6FF01B
:101AEC007E430093034600224FF400112046FFF77B
:101AFC0072FF0028E5D00320EFE76FF07E430093E0
:101B0C002B4600224FF480012046FFF764FF00288B
:101B1C00DCD00320E1E768B310B50446836F03B350
:101B2C002423A3672268136823F001031360204663
:101B3C00FFF7BCFD012813D0636ABBB92268536858
:101B4C0023F4904353602268936823F02A03936034
:101B5C002268136843F0010313602046FFF7A3FFCC
:101B6C0010BD80F87430FEF733FCD9E72046FFF740
:101B7C00CDFEE3E7012070472DE9F047089D0C46A8
:101B8C00002B4ED194468C458646B2FA82F262D92D
:101B9C004AB1C2F12003914020FA03F30CFA02FC83
:101BAC00194300FA02FE4FEA1C471FFA8CF6B1FBF0
:101BBC00F7F44FEA1E4307FB141143EA014304FBFD
:101BCC0006F199420AD91CEB030304F1FF3080F0B3
:101BDC001381994240F21081023C6344591A1FFA56
:101BEC008EF3B1FBF7F007FB101143EA014300FB46
:101BFC0006F69E420AD91CEB030300F1FF3180F07C
:101C0C00FD809E4240F2FA80634402389B1B40EAFE
:101C1C00044000211DB1D3400022C5E90032BDE8CB
:101C2C00F0878B4205D90DB1C5E9000100210846AA
:101C3C00F5E7B3FA83F1002946D1A34202D39042CF
:101C4C00C0F0F180861A64EB03030120002DE6D06E
:101C5C00C5E90063E3E7002A40F09180A1EB0C0496
:101C6C004FEA1C481FFA8CF70121B4FBF8F64FEA37
:101C7C001E4308FB164443EA044307FB06F0984254
:101C8C0008D91CEB030306F1FF3402D2984200F290
:101C9C00CE8026461C1A1FFA8EF3B4FBF8F008FB14
:101CAC00104443EA044300FB07F79F4208D91CEB9E
:101CBC00030300F1FF3402D29F4200F2B1802046B0
:101CCC00DB1B40EA0640A5E7C1F120068B4022FA57
:101CDC0006F71F4320FA06FC04FA01F343EA0C034F
:101CEC00F44000FA01F8380C4FEA1349B4FBF0FE4B
:101CFC001FFA87FC00FB1E4449EA04440EFB0CF956
:101D0C00A14502FA01F20AD93C190EF1FF3A80F012
:101D1C008580A14540F28280AEF1020E3C44A4EBDA
:101D2C0009041FFA83F9B4FBF0F300FB134449EAEE
:101D3C00044403FB0CFCA44507D93C1903F1FF3008
:101D4C0068D2A44566D9023B3C4443EA0E40A0FB52
:101D5C000293A4EB0C049C42CE469C4652D34FD02B
:101D6C0055B1B8EB0E0364EB0C0404FA06F6CB4049
:101D7C00CC401E43C5E900640021BDE8F087C2F1E8
:101D8C00200320FA03F10CFA02FC24FA03F394402A
:101D9C000C434FEA1C4800FA02FE1FFA8CF7B3FB07
:101DAC00F8F008FB1031230C43EA014300FB07F168
:101DBC00994208D91CEB030300F1FF362CD299424F
:101DCC002AD9023863445B1AA4B2B3FBF8F108FBBE
:101DDC00113344EA034401FB07F3A34208D91CEB7B
:101DEC00040401F1FF3613D2A34211D90239644421
:101DFC00E41A41EA004138E70446EFE6084605E7F5
:101E0C00C845ADD2B9EB020E63EB070C0138A7E75E
:101E1C003146EDE7034698E73046D4E7D6467EE7F1
:101E2C00634402384CE70646234608460EE7023E5A
:101E3C0063442FE7830730B547D0541E002A3ED0A9
:101E4C00CAB2034601E0013C39D303F8012B9D07CC
:101E5C00F9D1032C2CD9CDB205EB05250F2C05EBB4
:101E6C00054535D9A4F1100222F00F0C03F1100E28
:101E7C00E6444FEA121C1A46156055609560D56011
:101E8C0010327245F8D10CF1010214F00C0F03EB77
:101E9C00021204F00F0C13D0ACF1040323F0030373
:101EAC000433134442F8045B9A42FBD10CF0030454
:101EBC002CB1C9B21C4403F8011B9C42FBD130BDB0
:101ECC0064461346002CF4D1F9E703461446C0E7E8
:101EDC001A46A446E0E700BF70B50F4B0F4DAB425E
:101EEC00A3EB050607D0B610002455F8043B0134CB
:101EFC009847A642F9D800F083F8094D094B5E1BB0
:101F0C00AB424FEAA60606D0002455F8043B013438
:101F1C009847A642F9D870BD7420000874200008B8
:101F2C00742000087C200008704700BF704700BF79
:101F3C00024B13B1024800F005B8704700000000D6
:101F4C005D1F0008002301461A46184600F014B81D
:101F5C0038B5074D074C2C1BA41005D0013C55F887
:101F6C00043D9847002CF9D1BDE8384000F04EB83C
:101F7C00802000087C2000082DE9F047DFF874A0D1
:101F8C000646DAF8000098460F469146FFF7CCFF5C
:101F9C00194B1C6824B365681F2D24DC5EB96B1CBF
:101FAC000235DAF80000636044F82570FFF7BEFFD5
:101FBC000020BDE8F08704EB85010123C1F888906F
:101FCC00D4F88821AB401A43022EC4F88821C1F8FA
:101FDC000881E4D1D4F88C211A43C4F88C21DEE7B3
:101FEC00064C1C60D7E7DAF80000FFF79FFF4FF0B4
:101FFC00FF30DEE70C000020B8000020BC00002001
:10200C00F8B500BFF8BC08BC9E467047F8B500BFD9
:08201C00F8BC08BC9E467047A9
:10202400A0860100400D0300801A060000350C0054
:1020340040420F0080841E0000093D0000127A0017
:102044000024F40000366E010048E801006CDC0254
:102054000000000001020304000000000000000072
:0820640001020304060708094C
:08206C0018FBFF7F01000000DA
:082074003D1F000829020008CD
:04207C000102000855
:1020800000093D000100000010000000B400002025
:040000050800049952
:00000001FF
